:020000040000FA
:06000000D3EF09F012002D
:020006001200E6
:08000800F2A402D02FEF07F073
:100010009EAA02D095EF02F01200D08EF28E12004E
:10002000C26A0F0EC16E600ED3129B8C949C948E8C
:10003000959493809382938493869388938C938CE6
:04004000938E120089
:05004400434F4D0A00CE
:0100490001B5
:01004A0000B5
:02004B00FFFFB5
:100050000A00DA150000D0030000040000004B0085
:100060000000D4030000020000004A000000D90391
:1000700000000100000049000000D803000001005A
:100080000000C6150000A403000014000000B8150D
:100090000000B80300000E000000A01500000003DF
:1000A0000000180000001E15000000010000820082
:1000B000000092140000180300008C0000001414CB
:0A00C0000000820100007E00000035
:0600CA00D9CFE6FFE1CFF3
:1000D000D9FF020EE126E66AE10EE66EE66AE66AFE
:1000E00036EC03F0E552E552E552E552FE0EDBCF69
:1000F00019F3FD0EDBCF1AF3FC0EDBCF1BF3FB0E67
:10010000DBCF1CF3F90EDBCF99F3FA0EDBCF9AF3BA
:1001100029D8DE6ADD6ADECF10F0DDCF11F0D8908D
:10012000115004E61A0E105C000E11580FE2DECFDB
:1001300010F0DDCF11F0410E1024E66E99EC03F0C3
:10014000E552DF2A010E01E3DB2AE5D7B5EC03F027
:10015000020EE15C02E2E16AE552E16EE552E7CFB0
:10016000D9FF1200E66AE10EE66EE66AE66A36EC50
:1001700003F0E552E552E552E5520301956B966BAB
:10018000010E186F976B98699FC39BF3A0C39CF3F4
:10019000A1C39DF3A2C39EF318C3A3F31200D9CF4A
:1001A000E6FFE1CFD9FF060EE126DF6A0301185111
:1001B000A35D0BE1180509E0030E185D06E0980742
:1001C000985102E1CFDFB7D001D098691851030AE6
:1001D00001E1ACD0010A13E0030A02E0C3DFA9D0B9
:1001E000F6EC03F0000903E013EC04F0DF6E03010A
:1001F0001951DF5C03E1956B020E186F9AD0F6EC93
:1002000003F0000901E197D00301986913EC04F0B1
:10021000DF6E03011A51DF5C74E1020EDB6A030E2C
:10022000DB68D950030FE66E000EDA20E66E8DD83B
:10023000E552E552E76E020EE7CFDBFFDB50020A24
:1002400054E0030A05E0010A01E057D08BDF73D0C8
:10025000030199519A1147E0D950040FE66E000E40
:10026000DA20E66E970EE66E030EE66E1F0EE66E61
:10027000030EE66E05D09AC3FAFF03019951F96E99
:10028000FADF106E060EE15E10500301966F010E4C
:10029000596F962B97C35AF3962BDE52020EDD6EE2
:1002A0009651F36E010EDBCFF4FFF350F45C1AE2CB
:1002B000040EDBCFE9FF050EDBCFEAFFEF50E66E61
:1002C000010EDB50EA6A590FE96E030EEA22E5528D
:1002D000E750EF6E040EDB2A050E01E3DB2A010E68
:1002E000DB2ADED701D03EDF08D00301010E596FB3
:1002F000962B97C35AF3962B00D00301030E186F69
:1003000014D09551952BEA6A1D0FE96E030EEA226F
:10031000DFCFEFFF3C0E955D08E3010E596F962B82
:10032000900E5A6F962B030E186F03D059D81ADF10
:1003300000D018C3A3F3060EE15C02E2E16AE552C5
:10034000E16EE552E7CFD9FF1200D9CFE6FFE1CF4A
:10035000D9FF020EE12603019505EA6A1D0FE96E39
:10036000030EEA22EFCFDFFF010EDB6A1D0505E079
:10037000FF0E1D5D02E0000E27D09505E66E1D0EF6
:10038000E66E030EE66E9FD8E552E552E552E76E43
:10039000010EE7CFDBFFDB50DF5C0CE103019507CB
:1003A0009551EA6A1D0FE96E030EEA22EF6A010E0B
:1003B0000BD00AD0FD0EDBCFE9FFFE0EDBCFEAFF4C
:1003C000910EEF6E020E00D0106E020EE15C02E2A2
:1003D000E16AE552E16E1050E552E7CFD9FF120015
:1003E000D9CFE6FFE1CFD9FF020EE126DF6A010E89
:1003F000DB6A96C3E6FF590EE66E030EE66E63D81F
:10040000E552E552E552DF6E1BC3E6FF99EC03F0BF
:10041000E552010EDB6A03019651F36E010EDBCF4C
:10042000F4FFF350F45C0FE2010EDB50EA6A590F5F
:10043000E96E030EEA22EF50E66E99EC03F0E55206
:10044000010EDB2AE8D7DFCFE6FF99EC03F0E55297
:100450001CC3E6FF99EC03F0E552B5EC03F0040091
:10046000020EE15C02E2E16AE552E16EE552E7CF9D
:10047000D9FF1200D9CFE6FFE1CFD9FFFD0EDBCFC8
:10048000F6FFFE0EDBCFF7FF0800F55016E0FD0E7D
:10049000DBCFF6FFFE0EDBCFF7FF0800F550E66E70
:1004A00099EC03F0E552FD0EDBCFF6FFDB2AFE0EE2
:1004B000DBCFF7FF01E3DB2AE1D7B5EC03F0E55230
:1004C000E7CFD9FF1200D9CFE6FFE1CFD9FF030E66
:1004D000E126DF6A010EDB6AFC0EDB50F36E010ED3
:1004E000DBCFF4FFF350F45C12E2010EDB50E76E59
:1004F000FD0EDBCFE9FFFE0EDBCFEAFFE750E9267A
:10050000000EEA22EF50DF1A010EDB2AE5D7DF509A
:10051000106E030EE15C03E200D0E16AE552E16E89
:0A0520001050E552E7CFD9FF12009A
:06052A00DACFE4FFE2CF8E
:10053000DAFFE9CFE4FFEACFE4FFF6CFE4FFF7CF3D
:10054000E4FFF5CFE4FFF3CFE4FFF4CFE4FFFACF0D
:10055000E4FF00EE00F0100EE80403E3EECFE4FF4A
:10056000FBD700EE10F0040EE80403E3EECFE4FF47
:10057000FBD7E652D9CFE6FFE1CFD9FFE65250ECE8
:1005800009F0DF6E0101C151C12BEA6AC40FE96EA7
:10059000010EEA22DFCFEFFF3C0EC15D01E3C16B2C
:1005A000C32B9E9AE552E552E7CFD9FFE55200EE04
:1005B00013F0040EE80403E3E5CFEDFFFBD700EEF4
:1005C0000FF0100EE80403E3E5CFEDFFFBD7E5CF16
:1005D000FAFFE5CFF4FFE5CFF3FFE5CFF5FFE5CF79
:1005E000F7FFE5CFF6FFE5CFEAFFE5CFE9FFE5CF7F
:1005F000DAFF1100DACFE4FFE2CFDAFFE9CFE4FF60
:10060000EACFE4FFE652D9CFE6FFE1CFD9FFE652C9
:100610000101845104E1ACA2FED7AC9A1BD08351F6
:10062000EA6A850FE96E010EEA22EFCFDFFFDF50A5
:10063000AD6E832B3C0E835D01E3836B000EE76E92
:100640008419E8AE02D0843503D0E750D8808455B1
:1006500001E28407E552E552E7CFD9FFE552E5CF45
:10066000EAFFE5CFE9FFE5CFDAFF1100D9CFE6FFDA
:10067000E1CFD9FFE6527C0EDF6ED950FB0FE96E59
:10068000FF0EDA20EA6EEE2A000EEE22EE22EE22B5
:10069000D950FB0FE96EFF0EDA20EA6E040EE76E0A
:1006A000D890EF36010EEB36020EEB36030EEB362A
:1006B000E706F6E1106A120E116E7A0E126E136AD8
:1006C00010C004F011C005F012C006F013C007F00E
:1006D000FB0EDBCF09F0FC0EDBCF0AF0FD0EDBCF0B
:1006E0000BF0FE0EDBCF0CF00BEC09F0FB0E04C0A0
:1006F000DBFFFC0E05C0DBFFFD0E06C0DBFFFE0EC0
:1007000007C0DBFFFB0EDBCFE6FFFC0EDBCFE6FF17
:10071000DFCFE6FF86EC08F0E552E552E552D08ED9
:10072000AC8AAC9EF28C9F8AE552E552E7CFD9FFA6
:100730001200D9CFE6FFE1CFD9FFACA2FED701016D
:100740008251822BEA6A850FE96E010EEA22FE0EC3
:10075000DBCFEFFF842B3C0E825D01E3826B010E49
:1007600000D0E552E7CFD9FF1200D9CFE6FFE1CFA5
:10077000D9FF020EE126000E0101E76E8419E8AEF2
:1007800002D0843503D0E750D880845523E28351CA
:10079000EA6A850FE96E010EEA22010EEFCFDBFF58
:1007A000ACA2FED7010EDB50AD6EACA2FED70101AC
:1007B000832B3C0E835D01E3836B000EE76E84198F
:1007C000E8AE02D0843503D0E750D880845501E2EA
:1007D0008407D1D7106E020EE15C02E2E16AE552B5
:1007E000E16E1050E552E7CFD9FF1200D9CFE6FFF6
:1007F000E1CFD9FFE652DF6A9D9A000E0101E76E54
:10080000C319E8AE02D0C33503D0E750D880C35532
:1008100002E2010EDF6E9D8ADF5000D0E552E55204
:10082000E7CFD9FF1200D9CFE6FFE1CFD9FFE652DB
:100830009D9A0101C251C22BEA6AC40FE96E010EF2
:10084000EA22EFCFDFFF3C0EC25D01E3C26B000E78
:10085000E76EC319E8AE02D0C33503D0E750D880A5
:10086000C35501E2C3079D8ADF5000D0E552E5522F
:06087000E7CFD9FF1200E2
:0A087600D9CFE6FFE1CFD9FFE6522B
:100880008DD8DF6A080EDF5C09E2DF50EA6A000FEC
:10089000E96E030EEA22EF6ADF2AF4D7E552E55249
:1008A000E7CFD9FF1200D9CFE6FFE1CFD9FFCBD8F0
:1008B000FC0EDBCFE6FFFD0EDBCFE6FFFE0EDBCF4F
:1008C000E6FFE9D8E552E552E552E552E7CFD9FF18
:1008D0001200D9CFE6FFE1CFD9FFE652FC0EDB5084
:1008E000DF6EFB0EDB50D880DF541AE3ACD8DFCFCD
:1008F000E6FF136ADF34FE0B1336126EFD0EDB507B
:100900001224106EFE0EDB501320116E10C0E6FF95
:1009100011C0E6FFC0D8E552E552E552DF2AE1D723
:10092000E552E552E7CFD9FF1200D9CFE6FFE1CF7C
:10093000D9FFE652DF6A57D8DF6A080EDF5C15E29E
:10094000DFCFE6FF116ADF34FE0B1136106E080EA2
:100950001026030E112210C0E6FF11C0E6FF9BD83F
:10096000E552E552E552DF2AE8D7E552E552E7CFF6
:10097000D9FF1200D9CFE6FFE1CFD9FFFE0EEA6A18
:10098000DB34FE0BEA36E96E080EE926030EEA2296
:10099000EF5000D0E552E7CFD9FF1200D9CFE6FFE4
:1009A000E1CFD9FFE652DF6A080EDF5C17E2EA6AA0
:1009B000DF34FE0BEA36E96E080EE926030EEA2262
:1009C000EF6AEA6ADF34FE0BEA36E96E080EE926C2
:1009D000030EEA22EE52EF6ADF2AE6D7E552E5522D
:1009E000E7CFD9FF1200030E106E10C00CF0D8C371
:1009F00007F0EFEC09F0035003E10301D82B22D0FC
:100A00000301D851EA6A000FE96E030EEA22EF50A3
:100A100009E1D851EA6A000FE96E030EEA22010EDD
:100A2000EF6E0FD0D851EA6A000FE96E030EEA228A
:100A3000EF0407E1D851EA6A000FE96E030EEA22DB
:100A4000EF6AD82B12008150010B0301006F815017
:100A5000020B01E0010E016F8150040B01E0010E59
:100A6000026F8150080B01E0010E036F8150100BE3
:100A700001E0010E046F8150200B01E0010E056FB3
:100A80008150400B01E0010E066F8150800B01E0A8
:100A9000010E076F1200D9CFE6FFE1CFD9FFFD0E9F
:100AA000DBCFE9FFFE0EDBCFEAFFEF50010A3DE0AE
:100AB000010A01E074D0FC0EDB50EA6A000FE96E17
:100AC000030EEA22EF50010B27E1FD0EDBCFE9FF19
:100AD000FE0EDBCFEAFFEE52EF2AFD0EDBCFE9FF81
:100AE000FE0EDBCFEAFFEECF10F0EFCF11F0020EDB
:100AF0000001115C10E3FD0EDBCFE9FFFE0EDBCF42
:100B0000EAFF010EEF6EFD0EDBCFE9FFFE0EDBCF3D
:100B1000EAFFEE52EF6A08D0FD0EDBCFE9FFFE0ED2
:100B2000DBCFEAFFEE52EF6A3AD0FC0EDB50EA6A06
:100B3000000FE96E030EEA22EF50010B010826E1D7
:100B4000FD0EDBCFE9FFFE0EDBCFEAFFEE52EF2A10
:100B5000FD0EDBCFE9FFFE0EDBCFEAFFEECF10F09C
:100B6000EFCF11F0020E0001115C0FE3FD0EDBCFA1
:100B7000E9FFFE0EDBCFEAFFEF6AFD0EDBCFE9FFF8
:100B8000FE0EDBCFEAFFEE52EF6A08D0FD0EDBCFA0
:100B9000E9FFFE0EDBCFEAFFEE52EF6A00D0E5522E
:060BA000E7CFD9FF1200AF
:0A0BA600E40EE66E0D0EE66EDD0EA5
:100BB000E66ECC0EE66EBB0EE66EAA0EE66E65EC39
:100BC00000F0106E060EE15E10501200E66ABAECFC
:100BD00004F0E55201080EE10301010ED06FD16F60
:100BE000020EE66ED00EE66E030EE66E1BD8E552E0
:100BF000E552E552010EE66EBAEC04F0E55201084A
:100C000010E1F29E0301020ED26F010ED36F020EAD
:100C1000E66ED20EE66E030EE66E04D8E552E5529D
:100C2000E5521200D9CFE6FFE1CFD9FF030EE1264E
:100C3000010EDB6A020EDB6ADF6A010EDB6AFC0E64
:100C4000DB50DF5C63E2FD0EDBCFE9FFFE0EDBCFA6
:100C5000EAFF020EEFCFDBFFDB90DB92DB94DB964B
:100C6000DB380F0BF36E020EF3CFDBFFDB50300FE0
:100C7000E66E01010051080DF3CF10F0F4CF11F032
:100C8000020E1026010E1122010EDBCFF3FFDB2A2C
:100C9000F3500F011024E96E000E1120EA6EE552A8
:100CA000E750EF6EFD0EDBCFE9FFFE0EDBCFEAFF74
:100CB000020EEFCFDBFFDB98DB9ADB9CDB9EDB5089
:100CC000300FE66E01010051080DF3CF10F0F4CFA4
:100CD00011F0020E1026010E1122010EDBCFF3FFE0
:100CE000DB2AF3500F011024E96E000E1120EA6E8A
:100CF000E552E750EF6EFD0EDBCFE9FFDB2AFE0E7B
:100D0000DBCFEAFF01E3DB2ADF2A99D7010100519B
:100D1000080DF3CF10F0F4CF11F0020E1026010EE3
:100D20001122010EDB500F011024E96E000E11207C
:100D3000EA6EEF6A0101002B100E005D01E3006B0B
:100D4000030EE15C02E2E16AE552E16EE552E7CFB3
:100D5000D9FF1200D9CFE6FFE1CFD9FFE652DF6A13
:100D600001010151005D09E1FD0EDBCFE9FFFE0E3F
:100D7000DBCFEAFFEE6AED6A2ED00151080DF3CF0A
:100D800010F0F4CF11F0020E1026010E1122FD0E0C
:100D9000DBCFE9FFFE0EDBCFEAFF10C0EEFF11C094
:100DA000EDFF0151080DF3CF10F0F4CF11F0020E5A
:100DB0001026010E112210C0E6FF11C0E6FFE1EC83
:100DC00009F0E552E552F350DF6E0101012B100EE0
:100DD000015D01E3016BDF5000D0E552E552E7CF42
:100DE000D9FF1200D9CFE6FFE1CFD9FF030EE126EC
:100DF000FD0EDBCFE9FFFE0EDBCFEAFF010EEFCFEA
:100E0000DBFF020EDB6A010EDB50800A03E0020EFC
:100E1000DB6A16D0F90EDBCFE6FFFA0EDBCFE6FF7A
:100E200099DFE552E552E76E020EE7CFDBFFFB0EDE
:100E3000DBCFE9FFFC0EDBCFEAFF800EEF6E00D0C8
:100E4000020EDB50106E030EE15C03E200D0E16A9B
:0E0E5000E552E16E1050E552E7CFD9FF1200D7
:020E5E00DACFE9
:100E6000E4FFE2CFDAFFE9CFE4FFEACFE4FFF6CF19
:100E7000E4FFF7CFE4FFF5CFE4FFF3CFE4FFF4CFD7
:100E8000E4FFFACFE4FF00EE00F0100EE80403E305
:100E9000EECFE4FFFBD700EE10F0040EE80403E30E
:100EA000EECFE4FFFBD7E652F2940301C02B000E15
:100EB000C123C22BC323C42BC523BA51BB1107E0E6
:100EC00005D0BBC3FAFF0301BA51F96EFADFB8C30C
:100ED000E6FFB9C3E6FF8BEC09F0E552E552E552B7
:100EE00000EE13F0040EE80403E3E5CFEDFFFBD7BB
:100EF00000EE0FF0100EE80403E3E5CFEDFFFBD7A3
:100F0000E5CFFAFFE5CFF4FFE5CFF3FFE5CFF5FF3F
:100F1000E5CFF7FFE5CFF6FFE5CFEAFFE5CFE9FF45
:100F2000E5CFDAFF1100DACFE4FFE2CFDAFFE9CF55
:100F3000E4FFEACFE4FFF6CFE4FFF7CFE4FFF5CF1D
:100F4000E4FFF3CFE4FFF4CFE4FFFACFE4FF00EED9
:100F500000F0100EE80403E3EECFE4FFFBD700EE51
:100F600010F0040EE80403E3EECFE4FFFBD7E652F3
:100F70009E90BCC3E6FFBDC3E6FF6FEC09F0E552EF
:100F8000E5520301BE51BF1107E005D0BFC3FAFF10
:100F90000301BE51F96EFADFE55200EE13F0040EC4
:100FA000E80403E3E5CFEDFFFBD700EE0FF0100EF2
:100FB000E80403E3E5CFEDFFFBD7E5CFFAFFE5CF8C
:100FC000F4FFE5CFF3FFE5CFF5FFE5CFF7FFE5CF82
:100FD000F6FFE5CFEAFFE5CFE9FFE5CFDAFF110045
:100FE000D9CFE6FFE1CFD9FF9F0EE66EA7EC09F05F
:100FF000E552FD0EDBCFB8F3FE0EDBCFB9F3FB0EEF
:10100000DBCFBAF3FC0EDBCFBBF3FD0EDBCFE6FF8D
:10101000FE0EDBCFE6FF8BEC09F0E552E552E55220
:10102000E7CFD9FF1200D9CFE6FFE1CFD9FFC50E38
:10103000E66E2FEC09F0E552FD0EDBCFE6FFFE0E6B
:10104000DBCFE6FF6FEC09F0E552E5529F80FD0E25
:10105000DBCFBCF3FE0EDBCFBDF3FB0EDBCFBEF36D
:0E106000FC0EDBCFBFF3E552E7CFD9FF120045
:02106E00500E22
:10107000F66E000EF76E000EF86E03010900F550D3
:10108000CB6F0900F550CC6F03E1CB6701D03DD0A9
:101090000900F550C66F0900F550C76F0900F550FB
:1010A000C86F09000900F550E96E0900F550EA6EB5
:1010B000090009000900F550C96F0900F550CA6F11
:1010C00009000900F6CFCDF3F7CFCEF3F8CFCFF379
:1010D000C6C3F6FFC7C3F7FFC8C3F8FF0301C95370
:1010E00002E1CA5307E00900F550EE6EC907F8E2C5
:1010F000CA07F9D7CDC3F6FFCEC3F7FFCFC3F8FFBA
:0C1100000301CB07000ECC5BBFD7120030
:04110C00D9CFE6FF52
:10111000DACFE6FFE1CFD9FFE2CFDAFFAC6AAB6A04
:10112000FD0EDBB0AC88DBA202D0AC8CAB8CDBB4A8
:10113000AC8EDBA602D0AB8801D0AB8ADBB8AC8426
:101140009E98DBBAAB86DBAC02D09D8A01D09D9A1B
:101150009E9ADBAE02D09D8801D09D98FB0EDB509D
:10116000AF6EFB0EFC0EDBCF11F011C010F0116A58
:101170001050B06EAC8AAB8E949C948EAC50100B19
:1011800004E0AC50800B01E1948CE552E5CFDAFF2E
:06119000E7CFD9FF1200B9
:0A119600D9CFE6FFE1CFD9FF090E23
:1011A000E126070EDB6A080EDB6A10EC00F0000E89
:1011B000E66EE66ADF0EE66EB10EE66EF0EC07F064
:1011C000E552E552E552E552D3EC05F00DEC00F0A6
:1011D0000301640EC05D000EC15905E300EC0AF086
:1011E0000301C06BC16B0301050EC25D000EC35944
:1011F00005E395EC04F00301C26BC36BCFEC00F088
:10120000E7D7090EE15C02E2E16AE552E16EE552E0
:06121000E7CFD9FF120038
:0A121600036A026A016A006A200EF2
:10122000E76ED890043605360636073600360136A6
:10123000023603360950005C0A5001580B50025820
:101240000C50035809E30950005E0A50015A0B5034
:0E125000025A0C50035A042AE72EE4D712006B
:02125E00D9CFE6
:10126000E6FFDACFE6FFE1CFD9FFE2CFDAFFFD0EEE
:10127000DB507E0BCD6EFD0EDBAC02D0CD8E01D0EF
:10128000CD9ECF6ACE6A9E90DBAE02D09D8001D00B
:101290009D90CD80E552E5CFDAFFE7CFD9FF120070
:1012A000D9CFE6FFDACFE6FFE1CFD9FFE2CFDAFF11
:1012B000E652F20E0301D617ABAC03D0D691ABB019
:1012C000D681ABB4D685ABB2D687AE50DF6EDF50D9
:0E12D000E552E552E5CFDAFFE7CFD9FF120075
:0212DE00D9CF66
:1012E000E6FFDACFE6FFE1CFD9FFE2CFDAFFE65241
:1012F000E652FC0EDBCFDEFFDBCFDDFF010EDB5065
:10130000CF6EDF50CE6EE552E552E552E5CFDAFF03
:06131000E7CFD9FF120037
:0A131600D9CFE6FFDACFE6FFE1CF02
:10132000D9FFE2CFDAFFE652E652FC0EDBCFDEFF5A
:10133000DBCFDDFF010EDB50D76EDF50D66EE552FE
:0E134000E552E552E5CFDAFFE7CFD9FF120004
:02134E00D9CFF5
:10135000E6FFDACFE6FFE1CFD9FFE2CFDAFFFD0EFD
:10136000DB507F0BD56ED76AD66AF294FD0EDBAEEA
:1013700002D0F28A01D0F29AD58EE552E5CFDAFF9B
:06138000E7CFD9FF1200C7
:0A138600000EF36E00EE00F0060EFC
:1013900001D81200EA6002D0EE6AFCD7F350E9608F
:0613A0001200EE6AFCD70A
:0A13A60010EE80F020EE80F0F86AEF
:1013B0000F9C37EC08F003EC00F0CBEC08F0FBD707
:0213C000120019
:0E13C200FE0EE3CFE9FFFF0EE3CFEAFFF36A72
:0E13D000F46AEE5203E0F34AF42AFBD712004F
:0213DE00036AA0
:1013E000080EE76ED890073603360C50035C02E314
:0A13F000036E072AE72EF7D712005C
:0613FA000301D96B120093
:101400000301D90503E1D96B839403D0010ED96F91
:0414100083841200BF
:0C141400000000000000000000000000CC
:1014200000000000000000000000000000000000BC
:1014300000000000000000000000000000000000AC
:10144000000000000000000000000000000000009C
:10145000000000000000000000000000000000008C
:10146000000000000000000000000000000000007C
:10147000000000000000000000000000000000006C
:10148000000000000000000000000000000000005C
:0214900000005A
:0E14920000000000000000000000000000004C
:1014A000000000000000000000000000000000003C
:1014B000000000000000000000000000000000002C
:1014C000000000000000000000000000000000001C
:1014D000000000000000000000000000000000000C
:1014E00000000000000000000000000000000000FC
:1014F00000000000000000000000000000000000EC
:1015000000000000000000000000000000000000DB
:0E1510000000000000000000000000000000CD
:02151E000000CB
:1015200000000000000000000000000000000000BB
:1015300000000000000000000000000000000000AB
:10154000000000000000000000000000000000009B
:10155000000000000000000000000000000000008B
:10156000000000000000000000000000000000007B
:10157000000000000000000000000000000000006B
:10158000000000000000000000000000000000005B
:10159000000000000000000000000000000000004B
:1015A000000000000000000000000000000000003B
:0815B000000000000000000033
:0815B80000000000000000002B
:0615C00000000000000025
:0A15C6004944454F4E494353003F8E
:0A15D000065B4F666D7D077F6F001C
:0415DA00000000000D
:020000040030CA
:0100010008F6
:010002001BE2
:0100030012EA
:010005008179
:010006008178
:010008000FE8
:01000900C036
:01000A000FE6
:01000B00E014
:01000C000FE4
:01000D0040B2
:00000001FF
