:020000040000FA
:06000000E2EF09F012001E
:020006001200E6
:08000800F2A402D02BEF07F077
:100010009EAA02D090EF02F01200D08EF28E120053
:10002000C26A0F0EC16E700ED3129B8C949C948E7C
:10003000959493809382938493869388938C938CE6
:08004000938EF19E816812000D
:05004800434F4D0A00CA
:01004D0000B2
:02004E00FFFFB2
:100050000900E0150000CA020000060000004E0082
:100060000000D0020000020000004D000000D40299
:10007000000001000000CC1500009A0200001400EE
:100080000000BA150000AE02000012000000A21528
:1000900000000002000018000000201500001802F7
:1000A00000008200000094140000000100008C0099
:0E00B000000016140000000300007E00000097
:0200BE00D9CF98
:1000C000E6FFE1CFD9FF020EE126E66AE10EE66E19
:1000D000E66AE66A31EC03F0E552E552E552E55294
:1000E000FE0EDBCF01F1FD0EDBCF02F1FC0EDBCF0C
:1000F00003F1FB0EDBCF04F1F90EDBCF81F1FA0E39
:10010000DBCF82F129D8DE6ADD6ADECF10F0DDCFE9
:1001100011F0D890115004E61A0E105C000E115820
:100120000FE2DECF10F0DDCF11F0410E1024E66EAD
:1001300095EC03F0E552DF2A010E01E3DB2AE5D757
:10014000B1EC03F0020EE15C02E2E16AE552E16E1D
:10015000E552E7CFD9FF1200E66AE10EE66EE66AE5
:10016000E66A31EC03F0E552E552E552E552010151
:100170007D6B7E6B010E006F7F6B806987C183F1A1
:1001800088C184F189C185F18AC186F100C18BF1F2
:100190001200D9CFE6FFE1CFD9FF060EE126DF6AD4
:1001A000010100518B5D0BE1000509E0030E005DCC
:1001B00006E08007805102E1CFDFB7D001D080692F
:1001C0000051030A01E1ACD0010A13E0030A02E086
:1001D000C3DFA9D0F2EC03F0000903E00FEC04F058
:1001E000DF6E01010151DF5C03E17D6B020E006FE8
:1001F0009AD0F2EC03F0000901E197D00101806987
:100200000FEC04F0DF6E01010251DF5C74E1020EBD
:10021000DB6A030EDB68D950030FE66E000EDA20AE
:10022000E66E8DD8E552E552E76E020EE7CFDBFFB2
:10023000DB50020A54E0030A05E0010A01E057D04E
:100240008BDF73D001018151821147E0D950040F37
:10025000E66E000EDA20E66E7F0EE66E010EE66EAA
:10026000070EE66E010EE66E05D082C1FAFF0101AF
:100270008151F96EFADF106E060EE15E1050010139
:100280007E6FFA0E416F7E2B7FC142F17E2BDE52D4
:10029000020EDD6E7E51F36E010EDBCFF4FFF350E4
:1002A000F45C1AE2040EDBCFE9FF050EDBCFEAFFB8
:1002B000EF50E66E010EDB50EA6A410FE96E010E67
:1002C000EA22E552E750EF6E040EDB2A050E01E349
:1002D000DB2A010EDB2ADED701D03EDF08D0010188
:1002E000FA0E416F7E2B7FC142F17E2B00D00101BF
:1002F000030E006F14D07D517D2BEA6A050FE96E65
:10030000010EEA22DFCFEFFF3C0E7D5D08E3FA0E1F
:10031000416F7E2B900E426F7E2B030E006F03D039
:100320005AD81ADF00D000C18BF1060EE15C02E260
:10033000E16AE552E16EE552E7CFD9FF1200D9CF6D
:10034000E6FFE1CFD9FF020EE12601017D05EA6A51
:10035000050FE96E010EEA22EFCFDFFF010EDB6A27
:10036000FA0E055D05E0FF0E055D02E0000E27D0E8
:100370007D05E66E050EE66E010EE66E9FD8E5522F
:10038000E552E552E76E010EE7CFDBFFDB50DF5CA5
:100390000CE101017D077D51EA6A050FE96E010E4E
:1003A000EA22EF6A010E0BD00AD0FD0EDBCFE9FF87
:1003B000FE0EDBCFEAFF910EEF6E020E00D0106E44
:1003C000020EE15C02E2E16AE552E16E1050E55294
:1003D000E7CFD9FF1200D9CFE6FFE1CFD9FF020E58
:1003E000E126DF6A010EDB6A7EC1E6FF410EE66EA2
:1003F000010EE66E63D8E552E552E552DF6E03C1A9
:10040000E6FF95EC03F0E552010EDB6A01017E5137
:10041000F36E010EDBCFF4FFF350F45C0FE2010E3C
:10042000DB50EA6A410FE96E010EEA22EF50E66EF8
:1004300095EC03F0E552010EDB2AE8D7DFCFE6FFAB
:1004400095EC03F0E55204C1E6FF95EC03F0E552AC
:10045000B1EC03F00400020EE15C02E2E16AE55255
:10046000E16EE552E7CFD9FF1200D9CFE6FFE1CF29
:10047000D9FFFD0EDBCFF6FFFE0EDBCFF7FF080046
:10048000F55016E0FD0EDBCFF6FFFE0EDBCFF7FFDB
:100490000800F550E66E95EC03F0E552FD0EDBCF5B
:1004A000F6FFDB2AFE0EDBCFF7FF01E3DB2AE1D705
:1004B000B1EC03F0E552E7CFD9FF1200D9CFE6FF48
:1004C000E1CFD9FF030EE126DF6A010EDB6AFC0EE5
:1004D000DB50F36E010EDBCFF4FFF350F45C12E25D
:1004E000010EDB50E76EFD0EDBCFE9FFFE0EDBCF2A
:1004F000EAFFE750E926000EEA22EF50DF1A010E6C
:10050000DB2AE5D7DF50106E030EE15C03E200D07A
:10051000E16AE552E16E1050E552E7CFD9FF1200D3
:10052000DACFE4FFE2CFDAFFE9CFE4FFEACFE4FF7E
:10053000F6CFE4FFF7CFE4FFF5CFE4FFF3CFE4FF1E
:10054000F4CFE4FFFACFE4FF00EE00F0100EE80471
:1005500003E3EECFE4FFFBD700EE10F0040EE80457
:1005600003E3EECFE4FFFBD7E652D9CFE6FFE1CFBE
:10057000D9FFE6525FEC09F0DF6E03013F513F2BDC
:10058000EA6A420FE96E030EEA22DFCFEFFF3C0E6C
:100590003F5D01E33F6B412B9E9AE552E552E7CF69
:1005A000D9FFE55200EE13F0040EE80403E3E5CFB3
:1005B000EDFFFBD700EE0FF0100EE80403E3E5CFEC
:1005C000EDFFFBD7E5CFFAFFE5CFF4FFE5CFF3FF73
:1005D000E5CFF5FFE5CFF7FFE5CFF6FFE5CFEAFF83
:1005E000E5CFE9FFE5CFDAFF1100DACFE4FFE2CF94
:1005F000DAFFE9CFE4FFEACFE4FFE652D9CFE6FF26
:10060000E1CFD9FFE6520301025104E1ACA2FED7CB
:10061000AC9A1BD00151EA6A030FE96E030EEA227D
:10062000EFCFDFFFDF50AD6E012B3C0E015D01E32C
:10063000016B000EE76E0219E8AE02D0023503D05E
:10064000E750D880025501E20207E552E552E7CFB4
:10065000D9FFE552E5CFEAFFE5CFE9FFE5CFDAFFC5
:100660001100D9CFE6FFE1CFD9FFE6527C0EDF6E55
:10067000D950FB0FE96EFF0EDA20EA6EEE2A000E6B
:10068000EE22EE22EE22D950FB0FE96EFF0EDA20A9
:10069000EA6E040EE76ED890EF36010EEB36020ECE
:1006A000EB36030EEB36E706F6E1106A480E116EE4
:1006B000E80E126E010E136E10C004F011C005F0AA
:1006C00012C006F013C007F0FB0EDBCF09F0FC0EE2
:1006D000DBCF0AF0FD0EDBCF0BF0FE0EDBCF0CF014
:1006E0001AEC09F0FB0E04C0DBFFFC0E05C0DBFFBB
:1006F000FD0E06C0DBFFFE0E07C0DBFFFB0EDBCFEF
:10070000E6FFFC0EDBCFE6FFDFCFE6FF93EC08F061
:10071000E552E552E552D08EAC8AAC9EF28C9F8AAF
:10072000E552E552E7CFD9FF1200D9CFE6FFE1CF7E
:10073000D9FFACA2FED703010051002BEA6A030FD8
:10074000E96E030EEA22FE0EDBCFEFFF022B3C0E1A
:10075000005D01E3006B010E00D0E552E7CFD9FF49
:100760001200D9CFE6FFE1CFD9FF020EE126000E3D
:100770000301E76E0219E8AE02D0023503D0E7505C
:10078000D880025523E20151EA6A030FE96E030E95
:10079000EA22010EEFCFDBFFACA2FED7010EDB5049
:1007A000AD6EACA2FED70301012B3C0E015D01E34F
:1007B000016B000EE76E0219E8AE02D0023503D0DD
:1007C000E750D880025501E20207D1D7106E020E21
:1007D000E15C02E2E16AE552E16E1050E552E7CFDA
:1007E000D9FF1200D9CFE6FFE1CFD9FFE652DF6A89
:1007F0009D9A000E0301E76E4119E8AE02D0413523
:1008000003D0E750D880415502E2010EDF6E9D8A89
:10081000DF5000D0E552E552E7CFD9FF1200D9CF23
:10082000E6FFE1CFD9FFE6529D9A03014051402BEC
:10083000EA6A420FE96E030EEA22EFCFDFFF3C0EB9
:10084000405D01E3406B000EE76E4119E8AE02D057
:10085000413503D0E750D880415501E241079D8AD8
:0E086000DF5000D0E552E552E7CFD9FF12007D
:02086E000C0E6E
:10087000E66E0B0EE66EDD0EE66ECC0EE66EBB0E81
:10088000E66EAA0EE66E5FEC00F0106E060EE15EFC
:1008900010501200E66A42EC06F0E55201081EE133
:1008A0000201CE051BE00201700EBC5D170EBD59A2
:1008B00014E30201010ECA6FCB6F020EE66ECA0E80
:1008C000E66E020EE66E42D8E552E552E5520201AE
:1008D000010ECE6F0201BC6BBD6B08D0E66A42EC24
:1008E00006F0E552000902E10201CE6B010EE66E50
:1008F00042EC06F0E55201081FE10201CF051CE0C1
:100900000201700EBE5D170EBF5915E30201020E03
:10091000CC6F010ECD6F020EE66ECC0EE66E020EAF
:10092000E66E14D8E552E552E5520201010ECF6F92
:100930000201BE6BBF6B09D0010EE66E42EC06F001
:10094000E552000902E10201CF6B1200D9CFE6FFA8
:10095000E1CFD9FF030EE126010EDB6A020EDB6A4E
:10096000DF6A010EDB6AFC0EDB50DF5C63E2FD0E2A
:10097000DBCFE9FFFE0EDBCFEAFF020EEFCFDBFF9E
:10098000DB90DB92DB94DB96DB380F0BF36E020E11
:10099000F3CFDBFFDB50300FE66E02011851080D7C
:1009A000F3CF10F0F4CF11F01A0E1026020E112220
:1009B000010EDBCFF3FFDB2AF3500F011024E96EA9
:1009C000000E1120EA6EE552E750EF6EFD0EDBCF10
:1009D000E9FFFE0EDBCFEAFF020EEFCFDBFFDB9875
:1009E000DB9ADB9CDB9EDB50300FE66E0201185178
:1009F000080DF3CF10F0F4CF11F01A0E1026020EEE
:100A00001122010EDBCFF3FFDB2AF3500F0110247C
:100A1000E96E000E1120EA6EE552E750EF6EFD0E12
:100A2000DBCFE9FFDB2AFE0EDBCFEAFF01E3DB2AA7
:100A3000DF2A99D702011851080DF3CF10F0F4CF37
:100A400011F01A0E1026020E1122010EDB500F01BA
:100A50001024E96E000E1120EA6EEF6A0201182BD5
:100A6000100E185D01E3186B030EE15C02E2E16A0F
:100A7000E552E16EE552E7CFD9FF1200D9CFE6FF8C
:100A8000E1CFD9FFE652DF6A02011951185D09E191
:100A9000FD0EDBCFE9FFFE0EDBCFEAFFEE6AED6A6B
:100AA0002ED01951080DF3CF10F0F4CF11F01A0E1B
:100AB0001026020E1122FD0EDBCFE9FFFE0EDBCF6A
:100AC000EAFF10C0EEFF11C0EDFF1951080DF3CF82
:100AD00010F0F4CF11F01A0E1026020E112210C0E1
:100AE000E6FF11C0E6FFF0EC09F0E552E552F350E5
:100AF000DF6E0201192B100E195D01E3196BDF5037
:100B000000D0E552E552E7CFD9FF1200D9CFE6FF7A
:100B1000E1CFD9FF030EE126FD0EDBCFE9FFFE0E8C
:100B2000DBCFEAFF010EEFCFDBFF020EDB6A010E27
:100B3000DB50800A03E0020EDB6A16D0F90EDBCF31
:100B4000E6FFFA0EDBCFE6FF99DFE552E552E76EEE
:100B5000020EE7CFDBFFFB0EDBCFE9FFFC0EDBCFA6
:100B6000EAFF800EEF6E00D0020EDB50106E030E17
:100B7000E15C03E200D0E16AE552E16E1050E5521B
:060B8000E7CFD9FF1200CF
:0A0B8600D9CFE6FFE1CFD9FFE65218
:100B90008DD8DF6A080EDF5C09E2DF50EA6A000FD9
:100BA000E96E020EEA22EF6ADF2AF4D7E552E55237
:100BB000E7CFD9FF1200D9CFE6FFE1CFD9FF9BD80D
:100BC000FC0EDBCFE6FFFD0EDBCFE6FFFE0EDBCF3C
:100BD000E6FFB9D8E552E552E552E552E7CFD9FF35
:100BE0001200D9CFE6FFE1CFD9FFE652FC0EDB5071
:100BF000DF6EFB0EDB50D880DF541AE37CD8DFCFEA
:100C0000E6FF136ADF34FE0B1336126EFD0EDB5067
:100C10001224106EFE0EDB501320116E10C0E6FF82
:100C200011C0E6FF90D8E552E552E552DF2AE1D740
:100C3000E552E552E7CFD9FF1200D9CFE6FFE1CF69
:100C4000D9FFE652DF6A57D8DF6A080EDF5C15E28B
:100C5000DFCFE6FF116ADF34FE0B1136106E080E8F
:100C60001026020E112210C0E6FF11C0E6FF6BD85D
:100C7000E552E552E552DF2AE8D7E552E552E7CFE3
:100C8000D9FF1200D9CFE6FFE1CFD9FFFE0EEA6A05
:100C9000DB34FE0BEA36E96E080EE926020EEA2284
:100CA000EF5000D0E552E7CFD9FF1200D9CFE6FFD1
:100CB000E1CFD9FFE652DF6A080EDF5C17E2EA6A8D
:100CC000DF34FE0BEA36E96E080EE926020EEA2250
:100CD000EF6AEA6ADF34FE0BEA36E96E080EE926AF
:100CE000020EEA22EE52EF6ADF2AE6D7E552E5521B
:100CF000E7CFD9FF12008150010B0201006F815034
:100D0000020B01E0010E016F8150040B01E0010EA6
:100D1000026F8150080B01E0010E036F8150100B30
:100D200001E0010E046F8150200B01E0010E056F00
:100D30008150400B01E0010E066F8150800B01E0F5
:100D4000010E076F1200D9CFE6FFE1CFD9FFFD0EEC
:100D5000DBCFE9FFFE0EDBCFEAFFEF50010A3DE0FB
:100D6000010A01E074D0FC0EDB50EA6A000FE96E64
:100D7000020EEA22EF50010B27E1FD0EDBCFE9FF67
:100D8000FE0EDBCFEAFFEE52EF2AFD0EDBCFE9FFCE
:100D9000FE0EDBCFEAFFEECF10F0EFCF11F0020E28
:100DA0000001115C10E3FD0EDBCFE9FFFE0EDBCF8F
:100DB000EAFF010EEF6EFD0EDBCFE9FFFE0EDBCF8B
:100DC000EAFFEE52EF6A08D0FD0EDBCFE9FFFE0E20
:100DD000DBCFEAFFEE52EF6A3AD0FC0EDB50EA6A54
:100DE000000FE96E020EEA22EF50010B010826E126
:100DF000FD0EDBCFE9FFFE0EDBCFEAFFEE52EF2A5E
:100E0000FD0EDBCFE9FFFE0EDBCFEAFFEECF10F0E9
:100E1000EFCF11F0020E0001115C0FE3FD0EDBCFEE
:100E2000E9FFFE0EDBCFEAFFEF6AFD0EDBCFE9FF45
:100E3000FE0EDBCFEAFFEE52EF6A08D0FD0EDBCFED
:100E4000E9FFFE0EDBCFEAFFEE52EF6A00D0E5527B
:060E5000E7CFD9FF1200FC
:0A0E5600DACFE4FFE2CFDAFFE9CFC4
:100E6000E4FFEACFE4FFF6CFE4FFF7CFE4FFF5CFEE
:100E7000E4FFF3CFE4FFF4CFE4FFFACFE4FF00EEAA
:100E800000F0100EE80403E3EECFE4FFFBD700EE22
:100E900010F0040EE80403E3EECFE4FFFBD7E652C4
:100EA000F2940201B62B000EB723B82BB923BA2B4C
:100EB000BB23B051B11107E005D0B1C2FAFF020166
:100EC000B051F96EFADF0201700EBE5D170EBF5908
:100ED00003E2BE2B000EBF23700EBC5D170EBD5982
:100EE00003E2BC2B000EBD23AEC2E6FFAFC2E6FF9D
:100EF0009AEC09F0E552E552E55200EE13F0040ECB
:100F0000E80403E3E5CFEDFFFBD700EE0FF0100E92
:100F1000E80403E3E5CFEDFFFBD7E5CFFAFFE5CF2C
:100F2000F4FFE5CFF3FFE5CFF5FFE5CFF7FFE5CF22
:100F3000F6FFE5CFEAFFE5CFE9FFE5CFDAFF1100E5
:100F4000DACFE4FFE2CFDAFFE9CFE4FFEACFE4FF54
:100F5000F6CFE4FFF7CFE4FFF5CFE4FFF3CFE4FFF4
:100F6000F4CFE4FFFACFE4FF00EE00F0100EE80447
:100F700003E3EECFE4FFFBD700EE10F0040EE8042D
:100F800003E3EECFE4FFFBD7E6529E90B2C2E6FF4A
:100F9000B3C2E6FF7EEC09F0E552E5520201B4511E
:100FA000B51107E005D0B5C2FAFF0201B451F96EE0
:100FB000FADFE55200EE13F0040EE80403E3E5CF98
:100FC000EDFFFBD700EE0FF0100EE80403E3E5CFD2
:100FD000EDFFFBD7E5CFFAFFE5CFF4FFE5CFF3FF59
:100FE000E5CFF5FFE5CFF7FFE5CFF6FFE5CFEAFF69
:100FF000E5CFE9FFE5CFDAFF1100D9CFE6FFE1CF7A
:10100000D9FF9F0EE66EB6EC09F0E552FD0EDBCF80
:10101000AEF2FE0EDBCFAFF2FB0EDBCFB0F2FC0E7A
:10102000DBCFB1F2FD0EDBCFE6FFFE0EDBCFE6FF3E
:101030009AEC09F0E552E552E552E7CFD9FF1200EC
:10104000D9CFE6FFE1CFD9FFC50EE66E3EEC09F041
:10105000E552FD0EDBCFE6FFFE0EDBCFE6FF7EECBA
:1010600009F0E552E5529F80FD0EDBCFB2F2FE0E95
:10107000DBCFB3F2FB0EDBCFB4F2FC0EDBCFB5F26D
:08108000E552E7CFD9FF120091
:08108800500EF66E000EF76E2B
:10109000000EF86E02010900F550C56F0900F55009
:1010A000C66F03E1C56701D03DD00900F550C06FA0
:1010B0000900F550C16F0900F550C26F0900090021
:1010C000F550E96E0900F550EA6E090009000900C3
:1010D000F550C36F0900F550C46F09000900F6CF41
:1010E000C7F2F7CFC8F2F8CFC9F2C0C2F6FFC1C24B
:1010F000F7FFC2C2F8FF0201C35302E1C45307E085
:101100000900F550EE6EC307F8E2C407F9D7C7C26D
:10111000F6FFC8C2F7FFC9C2F8FF0201C507000EFB
:06112000C65BBFD7120000
:0A112600D9CFE6FFDACFE6FFE1CFF4
:10113000D9FFE2CFDAFFAC6AAB6AFD0EDBB0AC8858
:10114000DBA202D0AC8CAB8CDBB4AC8EDBA602D0C5
:10115000AB8801D0AB8ADBB8AC849E98DBBAAB8697
:10116000DBAC02D09D8A01D09D9A9E9ADBAE02D064
:101170009D8801D09D98FB0EDB50AF6EFB0EFC0EE0
:10118000DBCF11F011C010F0116A1050B06EAC8AB4
:10119000AB8E949C948EAC50100B04E0AC50800B42
:1011A00001E1948CE552E5CFDAFFE7CFD9FF1200D9
:1011B000D9CFE6FFE1CFD9FF090EE126070EDB6AA2
:1011C000080EDB6A10EC00F0000EE66EE66ADF0E39
:1011D000E66EB10EE66EFDEC07F0E552E552E55223
:1011E000E55237EC04F00DEC00F00201C80EB65DDC
:1011F000000EB75905E301EC0AF00201B66BB76BBC
:101200000201050EB85D000EB95905E31DEC06F0AC
:101210000201B86BB96BC9EC00F04AEC04F0E5D7F9
:10122000090EE15C02E2E16AE552E16EE552E7CFC8
:04123000D9FF1200D0
:0C123400036A026A016A006A200EE76E7D
:10124000D8900436053606360736003601360236A3
:1012500003360950005C0A5001580B5002580C50DC
:10126000035809E30950005E0A50015A0B50025A14
:0C1270000C50035A042AE72EE4D71200A9
:04127C00D9CFE6FFE1
:10128000DACFE6FFE1CFD9FFE2CFDAFFFD0EDB5088
:101290007E0BCD6EFD0EDBAC02D0CD8E01D0CD9E8F
:1012A000CF6ACE6A9E90DBAE02D09D8001D09D9029
:0E12B000CD80E552E5CFDAFFE7CFD9FF12007F
:0212BE00D9CF86
:1012C000E6FFDACFE6FFE1CFD9FFE2CFDAFFE65261
:1012D000F20E0201D217ABAC03D0D291ABB0D281E7
:1012E000ABB4D285ABB2D287AE50DF6EDF50E552E1
:0C12F000E552E5CFDAFFE7CFD9FF12008E
:0412FC00D9CFE6FF61
:10130000DACFE6FFE1CFD9FFE2CFDAFFE652E652CD
:10131000FC0EDBCFDEFFDBCFDDFF010EDB50CF6E3F
:10132000DF50CE6EE552E552E552E5CFDAFFE7CF6A
:04133000D9FF1200CF
:0C133400D9CFE6FFDACFE6FFE1CFD9FF0A
:10134000E2CFDAFFE652E652FC0EDBCFDEFFDBCF68
:10135000DDFF010EDB50D76EDF50D66EE552E55251
:0C136000E552E5CFDAFFE7CFD9FF12001D
:04136C00D9CFE6FFF0
:10137000DACFE6FFE1CFD9FFE2CFDAFFFD0EDB5097
:101380007F0BD56ED76AD66AF294FD0EDBAE02D023
:10139000F28A01D0F29AD58EE552E5CFDAFFE7CF97
:0413A000D9FF12005F
:0C13A400000EF36E00EE00F0060E01D803
:1013B0001200EA6002D0EE6AFCD7F350E960120036
:0413C000EE6AFCD7FE
:0C13C40010EE80F020EE80F0F86A0F9C24
:1013D00044EC08F003EC00F0D8EC08F0FBD7120066
:1013E000FE0EE3CFE9FFFF0EE3CFEAFFF36AF46AF4
:0C13F000EE5203E0F34AF42AFBD712008F
:0413FC000201D46BAB
:1014000012000201D40503E1D46B839403D0010ED2
:06141000D46F838412007A
:0A14160000000000000000000000CC
:1014200000000000000000000000000000000000BC
:1014300000000000000000000000000000000000AC
:10144000000000000000000000000000000000009C
:10145000000000000000000000000000000000008C
:10146000000000000000000000000000000000007C
:10147000000000000000000000000000000000006C
:10148000000000000000000000000000000000005C
:041490000000000058
:0C1494000000000000000000000000004C
:1014A000000000000000000000000000000000003C
:1014B000000000000000000000000000000000002C
:1014C000000000000000000000000000000000001C
:1014D000000000000000000000000000000000000C
:1014E00000000000000000000000000000000000FC
:1014F00000000000000000000000000000000000EC
:1015000000000000000000000000000000000000DB
:1015100000000000000000000000000000000000CB
:1015200000000000000000000000000000000000BB
:1015300000000000000000000000000000000000AB
:10154000000000000000000000000000000000009B
:10155000000000000000000000000000000000008B
:10156000000000000000000000000000000000007B
:10157000000000000000000000000000000000006B
:10158000000000000000000000000000000000005B
:10159000000000000000000000000000000000004B
:0215A000000049
:0E15A20000000000000000000000000000003B
:0A15B0000000000000000000000031
:0615BA000000000000002B
:0C15C00000000000000000007017701711
:0415CC004944454FFA
:1015D0004E494353003F065B4F666D7D077F6F00AA
:0615E00000000000000005
:020000040030CA
:0100010008F6
:010002001BE2
:0100030012EA
:010005008179
:010006008178
:010008000FE8
:01000900C036
:01000A000FE6
:01000B00E014
:01000C000FE4
:01000D0040B2
:00000001FF
