:020000040000FA
:060000001BEF09F01200E5
:020006001200E6
:080008009EA002D05AEF06F0A1
:10001000F2A202D09FEF07F0F0A002D0B7EF07F0F6
:10002000F2A402D0DDEF05F09EAA02D0B3EF02F0F9
:100030001200D08EF28EF28AF288F296F294F29248
:04004000F290120028
:05004400434F4D0A00CE
:0100490000B6
:02004A000000B4
:02004C00FFFFB4
:1000500009003D140000B9010000040000004C003C
:100060000000BF010000020000004A000000BD01C6
:1000700000000200000049000000C3010000010070
:10008000000034140000B001000009000000221438
:1000900000009401000012000000A0130000000204
:1000A0000000820000000C1300000001000094001A
:0E00B000000086120000000300008600000021
:0200BE00D9CF98
:1000C000E6FFE1CFD9FF020EE126E66AE10EE66E19
:1000D000E66AE66A5DEC03F0E552E552E552E55268
:1000E000FE0EDBCF01F1FD0EDBCF02F1FC0EDBCF0C
:1000F00003F1FB0EDBCF04F1F90EDBCF89F1FA0E31
:10010000DBCF8AF129D8DE6ADD6ADECF10F0DDCFE1
:1001100011F0D890115004E61A0E105C000E115820
:100120000FE2DECF10F0DDCF11F0410E1024E66EAD
:10013000C2EC03F0E552DF2A010E01E3DB2AE5D72A
:10014000E1EC03F0020EE15C02E2E16AE552E16EED
:10015000E552E7CFD9FF1200E66AE10EE66EE66AE5
:10016000E66A5DEC03F0E552E552E552E552010125
:10017000856B0101866B0101010E006F0101876B28
:10018000010188698FC18BF190C18CF191C18DF112
:1001900092C18EF100C193F11200D9CFE6FFE1CFF9
:1001A000D9FF060EE126DF6A010100510101935DCE
:1001B0000FE1010100050CE0030E0101005D08E004
:1001C000010188070101885102E1C6DFCCD002D0CD
:1001D0000101886901010051030A01E1BDD0010A52
:1001E00014E0030A01E0BBD027EC04F0000903E0AF
:1001F00044EC04F0DF6E01010151DF5C05E1010117
:10020000856B0101020E006FACD027EC04F00009F1
:1002100001E1A9D00101886944EC04F0DF6E01011D
:100220000251DF5C01E07CD0020EDB6A030EDB686A
:10023000D950030FE66E000EDA20E66E9ED8E55226
:10024000E552E76E020EE7CFDBFF020EDB50020A3B
:1002500058E0030A05E0010A01E05DD07DDF83D0AC
:10026000010189518A114BE0D950040FE66E000E4E
:10027000DA20E66E870EE66E010EE66E070EE66E7B
:10028000010EE66E05D08AC1FAFF01018951F96EAF
:10029000FADF106E060EE15E10500101866F01015B
:1002A000FA0E456F0101862B87C146F10101862BAD
:1002B000DE52020EDD6E01018651F36E010EDBCFC0
:1002C000F4FFF350F45C1AE2040EDBCFE9FF050EF5
:1002D000DBCFEAFFEF50E66E010EDB50EA6A450F16
:1002E000E96E010EEA22E552E750EF6E040EDB2ABA
:1002F000050E01E3DB2A010EDB2ADDD701D02CDF5E
:100300000BD00101FA0E456F0101862B87C146F122
:100310000101862B01D000D00101030E006F1BD01C
:1003200001018551852BEA6A050FE96E010EEA226B
:10033000DFCFEFFF400E0101855D0DE30101FA0EF5
:10034000456F0101862B0101900E466F0101862B3E
:100350000101030E006F05D061D8FEDE02D0FCDE85
:1003600000D000C193F1060EE15C02E2E16AE552C1
:10037000E16EE552E7CFD9FF1200D9CFE6FFE1CF1A
:10038000D9FF020EE12601018505EA6A050FE96E33
:10039000010EEA22EFCFDFFF010EDB6AFA0E010148
:1003A000055D06E0FA0E0101055D02E0000E2AD0AF
:1003B00001018505E66E050EE66E010EE66EA1D81A
:1003C000E552E552E552E76E010EE7CFDBFF010E85
:1003D000DB50DF5C0DE10101850701018551EA6A0F
:1003E000050FE96E010EEA22EF6A010E0BD00AD06A
:1003F000FD0EDBCFE9FFFE0EDBCFEAFF910EEF6EC5
:10040000020E00D0106E020EE15C02E2E16AE552DB
:10041000E16E1050E552E7CFD9FF1200D9CFE6FFC9
:10042000E1CFD9FF020EE126DF6A010EDB6A86C149
:10043000E6FF450EE66E010EE66E63D8E552E55224
:10044000E552DF6E03C1E6FFC2EC03F0E552010E98
:10045000DB6A01018651F36E010EDBCFF4FFF3502E
:10046000F45C0FE2010EDB50EA6A450FE96E010E03
:10047000EA22EF50E66EC2EC03F0E552010EDB2AF1
:10048000E8D7DFCFE6FFC2EC03F0E55204C1E6FF98
:10049000C2EC03F0E552E1EC03F00400020EE15C73
:1004A00002E2E16AE552E16EE552E7CFD9FF1200C0
:1004B000D9CFE6FFE1CFD9FFFD0EDBCFF6FFFE0E71
:1004C000DBCFF7FF0800F55016E0FD0EDBCFF6FF9F
:1004D000FE0EDBCFF7FF0800F550E66EC2EC03F02E
:1004E000E552FD0EDBCFF6FFDB2AFE0EDBCFF7FF7A
:1004F00001E3DB2AE1D7E1EC03F0E552E7CFD9FFD6
:100500001200D9CFE6FFE1CFD9FF030EE126DF6A63
:10051000010EDB6AFC0EDB50F36E010EDBCFF4FF45
:10052000F350F45C12E2010EDB50E76EFD0EDBCF00
:10053000E9FFFE0EDBCFEAFFE750E926000EEA22D4
:10054000EF50DF1A010EDB2AE5D7DF5000D0106E26
:10055000030EE15C02E2E16AE552E16E1050E55201
:06056000E7CFD9FF1200F5
:0A056600DACFE4FFE2CFDAFFE9CFBD
:10057000E4FFEACFE4FFF6CFE4FFF7CFE4FFF5CFE7
:10058000E4FFF3CFE4FFF4CFE4FFFACFE4FF00EEA3
:1005900000F0100EE80403E3EECFE4FFFBD700EE1B
:1005A00010F0040EE80403E3EECFE4FFFBD7E652BD
:1005B000D9CFE6FFE1CFD9FFE65289EC08F0DF6E34
:1005C00003014351432BEA6A460FE96E030EEA2208
:1005D000DFCFEFFF400E0301435D02E30301436BF6
:1005E0000301452B9E9AE552E552E7CFD9FFE5522C
:1005F00000EE13F0040EE80403E3E5CFEDFFFBD7B4
:1006000000EE0FF0100EE80403E3E5CFEDFFFBD79B
:10061000E5CFFAFFE5CFF4FFE5CFF3FFE5CFF5FF38
:10062000E5CFF7FFE5CFF6FFE5CFEAFFE5CFE9FF3E
:10063000E5CFDAFF1100DACFE4FFE2CFDAFFE9CF4E
:10064000E4FFEACFE4FFE652D9CFE6FFE1CFD9FFDE
:10065000E6520301025104E1ACA2FED7AC9A21D0CC
:1006600003010151EA6A030FE96E030EEA22EFCF9C
:10067000DFFFDF50AD6E0301012B400E0301015D72
:1006800002E30301016B000E0301E76E0219E8AEFD
:1006900002D0023503D0E750D880025502E20301B0
:1006A0000207E552E552E7CFD9FFE552E5CFEAFF71
:1006B000E5CFE9FFE5CFDAFF1100D9CFE6FFE1CFC3
:1006C000D9FFE6527C0EDF6ED950FB0FE96EFF0EAC
:1006D000DA20EA6EEE2A000EEE22000EEE22000E66
:1006E000EE22D950FB0FE96EFF0EDA20EA6E040EFF
:1006F000E76ED890EF36010EEB36020EEB36030EA6
:10070000EB36E706F6E1106A240E116EF40E126E57
:10071000136A10C004F011C005F012C006F013C037
:1007200007F0FB0EDBCF09F0FC0EDBCF0AF0FD0E6D
:10073000DBCF0BF0FE0EDBCF0CF044EC08F0FB0E31
:1007400004C0DBFFFC0E05C0DBFFFD0E06C0DBFFB7
:10075000FE0E07C0DBFFFB0EDBCFE6FFFC0EDBCFA0
:10076000E6FFDFCFE6FF4DEC07F0E552E552E5523C
:10077000D08EAC8AAC9EF28C9F8AE552E552E7CFD0
:10078000D9FF1200D9CFE6FFE1CFD9FFACA2FED747
:1007900003010051002BEA6A030FE96E030EEA22FF
:1007A000FE0EDBCFEFFF0301022B400E0301005DC5
:1007B00002E30301006B010E00D0E552E7CFD9FF41
:1007C0001200D9CFE6FFE1CFD9FF020EE126000EDD
:1007D0000301E76E0219E8AE02D0023503D0E750FC
:1007E000D880025528E203010151EA6A030FE96E3D
:1007F000030EEA22010EEFCFDBFFACA2FED7010E03
:10080000DB50AD6EACA2FED70301012B400E0301FD
:10081000015D02E30301016B000E0301E76E0219A3
:10082000E8AE02D0023503D0E750D880025502E28C
:1008300003010207CCD7106E020EE15C02E2E16A0E
:10084000E552E16E1050E552E7CFD9FF1200D9CF43
:10085000E6FFE1CFD9FFE652DF6A9D9A000E030161
:10086000E76E4519E8AE02D0453503D0E750D88091
:10087000455502E2010EDF6E9D8ADF5000D0E55241
:10088000E552E7CFD9FF1200D9CFE6FFE1CFD9FF7C
:10089000E6529D9A03014451442BEA6A460FE96EE1
:1008A000030EEA22EFCFDFFF400E0301445D02E3B7
:1008B0000301446B000E0301E76E4519E8AE02D058
:1008C000453503D0E750D880455502E2030145077E
:1008D0009D8ADF5000D0E552E552E7CFD9FF1200E4
:1008E0003E0EE66E0B0EE66EDD0EE66ECC0EE66E8E
:1008F000BB0EE66EAA0EE66E5FEC00F0106E060E02
:10090000E15E105012000101BE0515E1F29E0101E9
:10091000020EBB6F0101010EBC6F020EE66EBB0E34
:10092000E66E010EE66E1FD8E552E552E552010172
:10093000BE6BF28E17D00101BD0514E1F29E0101DC
:10094000010EB96F0101010EBA6F020EE66EB90E0B
:10095000E66E010EE66E07D8E552E552E55201015A
:10096000BD6BF28E1200D9CFE6FFE1CFD9FF030EA7
:10097000E126010EDB6A020EDB6ADF6A010EDB6A2A
:10098000FC0EDB50DF5C68E2FD0EDBCFE9FFFE0E04
:10099000DBCFEAFF020EEFCFDBFF020EDB90DB9234
:1009A000DB94DB96020EDB380F0BF36E020EF3CFF7
:1009B000DBFF020EDB50300FE66E02010051080D26
:1009C000F3CF10F0F4CF11F0020E1026020E112218
:1009D000010EDBCFF3FFDB2AF3500F011024E96E89
:1009E000000E1120EA6EE552E750EF6EFD0EDBCFF0
:1009F000E9FFFE0EDBCFEAFF020EEFCFDBFF020EB8
:100A0000DB98DB9ADB9CDB9E020EDB50300FE66E40
:100A100002010051080DF3CF10F0F4CF11F0020ED7
:100A20001026020E1122010EDBCFF3FFDB2AF3505A
:100A30000F011024E96E000E1120EA6EE552E75016
:100A4000EF6EFD0EDBCFE9FFDB2AFE0EDBCFEAFF08
:100A500001E3DB2ADF2A94D702010051080DF3CF0E
:100A600010F0F4CF11F0020E1026020E1122010E2A
:100A7000DB500F011024E96E000E1120EA6EEF6AC0
:100A80000201002B100E0201005D02E30201006B67
:100A9000030EE15C02E2E16AE552E16EE552E7CF66
:100AA000D9FF1200D9CFE6FFE1CFD9FFE652DF6AC6
:100AB000020101510201005D09E1FD0EDBCFE9FFFA
:100AC000FE0EDBCFEAFFEE6AED6A32D00201015181
:100AD000080DF3CF10F0F4CF11F0020E1026020E25
:100AE0001122FD0EDBCFE9FFFE0EDBCFEAFF10C0C7
:100AF000EEFF11C0EDFF02010151080DF3CF10F020
:100B0000F4CF11F0020E1026020E112210C0E6FFE3
:100B100011C0E6FF29EC09F0E552E552F350DF6E13
:100B20000201012B100E0201015D02E30201016BC3
:100B3000DF5000D0E552E552E7CFD9FF1200D9CF00
:100B4000E6FFE1CFD9FF030EE126FD0EDBCFE9FF83
:100B5000FE0EDBCFEAFF010EEFCFDBFF020EDB6AFA
:100B6000010EDB50800A01E016D0F90EDBCFE6FF64
:100B7000FA0EDBCFE6FF96DFE552E552E76E020E96
:100B8000E7CFDBFFFB0EDBCFE9FFFC0EDBCFEAFF9D
:100B9000800EEF6E03D0020EDB6A00D0020EDB5037
:100BA00000D0106E030EE15C02E2E16AE552E16EF4
:0A0BB0001050E552E7CFD9FF120004
:060BBA00DACFE4FFE2CFF8
:100BC000DAFFE9CFE4FFEACFE4FFF6CFE4FFF7CFA7
:100BD000E4FFF5CFE4FFF3CFE4FFF4CFE4FFFACF77
:100BE000E4FF00EE00F0100EE80403E3EECFE4FFB4
:100BF000FBD700EE10F0040EE80403E3EECFE4FFB1
:100C0000FBD7E652F29401019C2B000E9D230101BB
:100C10009E2B000E9F230101A02B000EA12301019A
:100C2000C40EA25D090EA35904E20101A22B000E1D
:100C3000A3230101C40EA45D090EA55904E201011C
:100C4000A42B000EA52301019651971107E005D0B2
:100C500097C1FAFF01019651F96EFADF94C1E6FFE0
:100C600095C1E6FFC4EC08F0E552E552E55200EE0E
:100C700013F0040EE80403E3E5CFEDFFFBD700EE2D
:100C80000FF0100EE80403E3E5CFEDFFFBD7E5CF4F
:100C9000FAFFE5CFF4FFE5CFF3FFE5CFF5FFE5CFB2
:100CA000F7FFE5CFF6FFE5CFEAFFE5CFE9FFE5CFB8
:100CB000DAFF1100DACFE4FFE2CFDAFFE9CFE4FF99
:100CC000EACFE4FFF6CFE4FFF7CFE4FFF5CFE4FF90
:100CD000F3CFE4FFF4CFE4FFFACFE4FF00EE00F03F
:100CE000100EE80403E3EECFE4FFFBD700EE10F0B4
:100CF000040EE80403E3EECFE4FFFBD7E6529E9038
:100D000098C1E6FF99C1E6FFA8EC08F0E552E5526C
:100D100001019A519B1107E005D09BC1FAFF010127
:100D20009A51F96EFADFE55200EE13F0040EE80472
:100D300003E3E5CFEDFFFBD700EE0FF0100EE80464
:100D400003E3E5CFEDFFFBD7E5CFFAFFE5CFF4FFF7
:100D5000E5CFF3FFE5CFF5FFE5CFF7FFE5CFF6FFF2
:100D6000E5CFEAFFE5CFE9FFE5CFDAFF1100D9CF04
:100D7000E6FFE1CFD9FF9F0EE66EE0EC08F0E5520A
:100D8000FD0EDBCF94F1FE0EDBCF95F1FB0EDBCF3A
:100D900096F1FC0EDBCF97F1FD0EDBCFE6FFFE0EEA
:100DA000DBCFE6FFC4EC08F0E552E552E552E7CFB1
:100DB000D9FF1200D9CFE6FFE1CFD9FFC50EE66E0D
:100DC00068EC08F0E552FD0EDBCFE6FFFE0EDBCF50
:100DD000E6FFA8EC08F0E552E5529F80FD0EDBCF60
:100DE00098F1FE0EDBCF99F1FB0EDBCF9AF1FC0EF2
:0C0DF000DBCF9BF1E552E7CFD9FF1200EA
:040DFC00500EF66E31
:100E0000000EF76E000EF86E01010900F550AB6F91
:100E10000900F550AC6F03E1AB6701D03DD009008C
:100E2000F550A66F0900F550A76F0900F550A86F9F
:100E300009000900F550E96E0900F550EA6E090055
:100E400009000900F550A96F0900F550AA6F0900C3
:100E50000900F6CFADF1F7CFAEF1F8CFAFF1A6C1F3
:100E6000F6FFA7C1F7FFA8C1F8FF0101A95302E1EE
:100E7000AA5307E00900F550EE6EA907F8E2AA07A9
:100E8000F9D7ADC1F6FFAEC1F7FFAFC1F8FF010161
:0A0E9000AB07000EAC5BBFD71200E9
:060E9A00D9CFE6FFDACF1C
:100EA000E6FFE1CFD9FFE2CFDAFFAC6AAB6AFD0E15
:100EB000DBB0AC88DBA202D0AC8CAB8CDBB4AC8EEC
:100EC000DBA602D0AB8801D0AB8ADBB8AC849E989D
:100ED000DBBAAB86DBAC02D09D8A01D09D9A9E9A8C
:100EE000DBAE02D09D8801D09D98FB0EDB50AF6E2B
:100EF000FB0EFC0EDBCF11F011C010F0116A105088
:100F0000B06EAC8AAB8E949C948EAC50100B04E007
:100F1000AC50800B01E1948CE552E5CFDAFFE7CFCE
:040F2000D9FF1200E3
:0C0F2400FC0EE66E1FEC08F0E552FC0E1F
:100F3000E66ECFEC07F0E552F292F0901200DACFB5
:100F4000E4FFE2CFDAFFE652F2920101C40EA25DA5
:100F5000090EA35902E207D003D00101A26BA36BD3
:100F60000101010EBD6FE552E5CFDAFF1100DACFC6
:100F7000E4FFE2CFDAFFE652F0900101C40EA45D77
:100F8000090EA55902E207D003D00101A46BA56B9D
:0E0F90000101010EBE6FE552E5CFDAFF110040
:020F9E00D9CFA9
:100FA000E6FFDACFE6FFE1CFD9FFE2CFDAFFF0903C
:100FB000FD0EDBA202D0F18A01D0F19ADBA002D0B3
:100FC000F18E01D0F19EDBAC02D0F18001D0F19026
:100FD000DBAC02D0F08C01D0F09C9382DBAE02D06F
:100FE000F08601D0F096E552E5CFDAFFE7CFD9FFE2
:020FF0001200ED
:0E0FF20037EC09F0000EE66EE66ADF0EE66EE2
:10100000B10EE66EB7EC06F0E552E552E552E55258
:1010100092EC07F070EC04F019EC00F00101FA0E0C
:101020009C5D000E9D5907E30FEC09F083EC04F082
:0E10300001019C6B9D6BCDEC00F0F0D712001F
:02103E00D9CF08
:10104000E6FFDACFE6FFE1CFD9FFE2CFDAFFF29297
:10105000FD0EDBA202D0F18C01D0F19CDBA002D00E
:10106000F18E01D0F19E9380DBAC02D0F18001D0F3
:10107000F190DBAE02D0F28801D0F298E552E5CFD4
:08108000DAFFE7CFD9FF1200EF
:08108800036A026A016A006AB2
:10109000200EE76ED8900436053606360736003641
:1010A0000136023603360950005C0A5001580B50D5
:1010B00002580C50035809E30950005E0A50015AC7
:1010C0000B50025A0C50035A042AE72EE4D71200A0
:1010D000D9CFE6FFDACFE6FFE1CFD9FFE2CFDAFFE3
:1010E000FD0EDB507E0BCD6EFD0EDBAC02D0CD8E47
:1010F00001D0CD9ECF6ACE6A9E90DBAE02D09D809D
:1011000001D09D90CD80E552E5CFDAFFE7CFD9FF42
:021110001200CB
:0E111200D9CFE6FFDACFE6FFE1CFD9FFE2CF7B
:10112000DAFFE652F20E0101C117ABAC03D0C19158
:10113000ABB0C181ABB4C185ABB2C187AE50DF6E7D
:10114000DF50E552E552E5CFDAFFE7CFD9FF1200D5
:10115000D9CFE6FFDACFE6FFE1CFD9FFE2CFDAFF62
:10116000E652E652FC0EDBCFDEFFDBCFDDFF010EE9
:10117000DB50CF6EDF50CE6EE552E552E552E5CF43
:08118000DAFFE7CFD9FF1200EE
:08118800D9CFE6FFDACFE6FF44
:10119000E1CFD9FFE2CFDAFFE652E652FC0EDBCF19
:1011A000DEFFDBCFDDFF010EDB50D76EDF50D66EEA
:1011B000E552E552E552E5CFDAFFE7CFD9FF12005D
:1011C000D9CFE6FFDACFE6FFE1CFD9FFE2CFDAFFF2
:1011D000FD0EDB507F0BD56ED76AD66AF294FD0EFA
:1011E000DBAE02D0F28A01D0F29AD58EE552E5CF7D
:0811F000DAFFE7CFD9FF12007E
:0811F800000EF36E00EE00F0A2
:10120000060E01D81200EA6002D0EE6AFCD7F35055
:08121000E9601200EE6AFCD750
:081218000101C36B120001018A
:10122000C30504E10101C36B839404D00101010EE5
:06123000C36F838412006D
:0A12360010EE80F020EE80F0F86A60
:101240000F9CFEEC06F003EC00F0F9EC07F0FBD786
:0212500012008A
:0E125200FE0EE3CFE9FFFF0EE3CFEAFFF36AE3
:0E126000F46AEE5203E0F34AF42AFBD71200C0
:02126E00C26A52
:101270000F0EC16E600ED3129B8C949C948E95942D
:0612800093809380120030
:0A128600000000000000000000005E
:10129000000000000000000000000000000000004E
:1012A000000000000000000000000000000000003E
:1012B000000000000000000000000000000000002E
:1012C000000000000000000000000000000000001E
:1012D000000000000000000000000000000000000E
:1012E00000000000000000000000000000000000FE
:1012F00000000000000000000000000000000000EE
:0C130000000000000000000000000000E1
:04130C0000000000DD
:1013100000000000000000000000000000000000CD
:1013200000000000000000000000000000000000BD
:1013300000000000000000000000000000000000AD
:10134000000000000000000000000000000000009D
:10135000000000000000000000000000000000008D
:10136000000000000000000000000000000000007D
:10137000000000000000000000000000000000006D
:10138000000000000000000000000000000000005D
:10139000000000000000000000000000000000004D
:1013A000000000000000000000000000000000003D
:1013B000000000000000000000000000000000002D
:1013C000000000000000000000000000000000001D
:1013D000000000000000000000000000000000000D
:1013E00000000000000000000000000000000000FD
:1013F00000000000000000000000000000000000ED
:1014000000000000000000000000000000000000DC
:1014100000000000000000000000000000000000CC
:021420000000CA
:0E1422000000000000000000000000000000BC
:0414300000000000B8
:091434004944454F4E4943530061
:03143D00000000AC
:0114400000AB
:020000040030CA
:0100010008F6
:010002001BE2
:0100030012EA
:010005008179
:010006008178
:010008000FE8
:01000900C036
:01000A000FE6
:01000B00E014
:01000C000FE4
:01000D0040B2
:00000001FF
